{
  "_format": "hh-sol-artifact-1",
  "contractName": "BookPortal",
  "sourceName": "contracts/BookPortal.sol",
  "abi": [
    {
      "inputs": [],
      "stateMutability": "payable",
      "type": "constructor"
    },
    {
      "anonymous": false,
      "inputs": [
        {
          "indexed": true,
          "internalType": "address",
          "name": "from",
          "type": "address"
        },
        {
          "indexed": false,
          "internalType": "uint256",
          "name": "timestamp",
          "type": "uint256"
        },
        {
          "indexed": false,
          "internalType": "string",
          "name": "message",
          "type": "string"
        }
      ],
      "name": "NewBook",
      "type": "event"
    },
    {
      "anonymous": false,
      "inputs": [
        {
          "indexed": false,
          "internalType": "uint256",
          "name": "requestId",
          "type": "uint256"
        }
      ],
      "name": "fiftyFiftyRequest",
      "type": "event"
    },
    {
      "anonymous": false,
      "inputs": [
        {
          "indexed": false,
          "internalType": "uint256",
          "name": "requestId",
          "type": "uint256"
        },
        {
          "indexed": false,
          "internalType": "bool",
          "name": "didWin",
          "type": "bool"
        }
      ],
      "name": "fiftyFiftyResult",
      "type": "event"
    },
    {
      "inputs": [],
      "name": "getAllBooks",
      "outputs": [
        {
          "components": [
            {
              "internalType": "address",
              "name": "author",
              "type": "address"
            },
            {
              "internalType": "string",
              "name": "message",
              "type": "string"
            },
            {
              "internalType": "uint256",
              "name": "timestamp",
              "type": "uint256"
            }
          ],
          "internalType": "struct BookPortal.Book[]",
          "name": "",
          "type": "tuple[]"
        }
      ],
      "stateMutability": "view",
      "type": "function"
    },
    {
      "inputs": [
        {
          "internalType": "uint256",
          "name": "requestId",
          "type": "uint256"
        }
      ],
      "name": "getStatus",
      "outputs": [
        {
          "components": [
            {
              "internalType": "uint256",
              "name": "fees",
              "type": "uint256"
            },
            {
              "internalType": "uint256",
              "name": "randomWord",
              "type": "uint256"
            },
            {
              "internalType": "address",
              "name": "author",
              "type": "address"
            },
            {
              "internalType": "bool",
              "name": "didWin",
              "type": "bool"
            },
            {
              "internalType": "bool",
              "name": "fulfilled",
              "type": "bool"
            }
          ],
          "internalType": "struct BookPortal.fiftyFiftyStatus",
          "name": "",
          "type": "tuple"
        }
      ],
      "stateMutability": "view",
      "type": "function"
    },
    {
      "inputs": [],
      "name": "getTotalQuills",
      "outputs": [
        {
          "internalType": "uint256",
          "name": "",
          "type": "uint256"
        }
      ],
      "stateMutability": "view",
      "type": "function"
    },
    {
      "inputs": [
        {
          "internalType": "address",
          "name": "",
          "type": "address"
        }
      ],
      "name": "lastQuilledAt",
      "outputs": [
        {
          "internalType": "uint256",
          "name": "",
          "type": "uint256"
        }
      ],
      "stateMutability": "view",
      "type": "function"
    },
    {
      "inputs": [
        {
          "internalType": "string",
          "name": "_message",
          "type": "string"
        }
      ],
      "name": "quill",
      "outputs": [
        {
          "internalType": "uint256",
          "name": "",
          "type": "uint256"
        }
      ],
      "stateMutability": "payable",
      "type": "function"
    },
    {
      "inputs": [
        {
          "internalType": "uint256",
          "name": "_requestId",
          "type": "uint256"
        },
        {
          "internalType": "uint256[]",
          "name": "_randomWords",
          "type": "uint256[]"
        }
      ],
      "name": "rawFulfillRandomWords",
      "outputs": [],
      "stateMutability": "nonpayable",
      "type": "function"
    },
    {
      "inputs": [
        {
          "internalType": "uint256",
          "name": "",
          "type": "uint256"
        }
      ],
      "name": "statuses",
      "outputs": [
        {
          "internalType": "uint256",
          "name": "fees",
          "type": "uint256"
        },
        {
          "internalType": "uint256",
          "name": "randomWord",
          "type": "uint256"
        },
        {
          "internalType": "address",
          "name": "author",
          "type": "address"
        },
        {
          "internalType": "bool",
          "name": "didWin",
          "type": "bool"
        },
        {
          "internalType": "bool",
          "name": "fulfilled",
          "type": "bool"
        }
      ],
      "stateMutability": "view",
      "type": "function"
    }
  ],
  "bytecode": "0x60c060405273326c977e6efc84e512bb9c30f76e30c160ed06fb73708701a1dff4f478de54383e49a627ed4852c8168173ffffffffffffffffffffffffffffffffffffffff1660808173ffffffffffffffffffffffffffffffffffffffff16815250508073ffffffffffffffffffffffffffffffffffffffff1660a08173ffffffffffffffffffffffffffffffffffffffff16815250505050620000c7604051806080016040528060488152602001620023d160489139620000cd60201b620009051760201c565b62000257565b6200016d81604051602401620000e4919062000233565b6040516020818303038152906040527f41304fac000000000000000000000000000000000000000000000000000000007bffffffffffffffffffffffffffffffffffffffffffffffffffffffff19166020820180517bffffffffffffffffffffffffffffffffffffffffffffffffffffffff83818316178352505050506200017060201b60201c565b50565b60008151905060006a636f6e736f6c652e6c6f679050602083016000808483855afa5050505050565b600081519050919050565b600082825260208201905092915050565b60005b83811015620001d5578082015181840152602081019050620001b8565b60008484015250505050565b6000601f19601f8301169050919050565b6000620001ff8262000199565b6200020b8185620001a4565b93506200021d818560208601620001b5565b6200022881620001e1565b840191505092915050565b600060208201905081810360008301526200024f8184620001f2565b905092915050565b60805160a05161213862000299600039600081816101e1015281816106f101528181610e1501528181610e360152610f5601526000610dd901526121386000f3fe6080604052600436106100705760003560e01c8063a7c8cffe1161004e578063a7c8cffe14610106578063b2e74af714610131578063e67b932c1461016e578063f89653ba146101af57610070565b80631fe543e314610075578063354528e81461009e5780635c622a0e146100c9575b600080fd5b34801561008157600080fd5b5061009c600480360381019061009791906112a0565b6101df565b005b3480156100aa57600080fd5b506100b361027b565b6040516100c091906114dd565b60405180910390f35b3480156100d557600080fd5b506100f060048036038101906100eb91906114ff565b6103cc565b6040516100fd91906115af565b60405180910390f35b34801561011257600080fd5b5061011b610499565b60405161012891906115d9565b60405180910390f35b34801561013d57600080fd5b5061015860048036038101906101539190611620565b6104e4565b60405161016591906115d9565b60405180910390f35b34801561017a57600080fd5b50610195600480360381019061019091906114ff565b6104fc565b6040516101a695949392919061166b565b60405180910390f35b6101c960048036038101906101c49190611773565b61056c565b6040516101d691906115d9565b60405180910390f35b7f000000000000000000000000000000000000000000000000000000000000000073ffffffffffffffffffffffffffffffffffffffff163373ffffffffffffffffffffffffffffffffffffffff161461026d576040517f08c379a000000000000000000000000000000000000000000000000000000000815260040161026490611819565b60405180910390fd5b610277828261099e565b5050565b60606002805480602002602001604051908101604052809291908181526020016000905b828210156103c357838290600052602060002090600302016040518060600160405290816000820160009054906101000a900473ffffffffffffffffffffffffffffffffffffffff1673ffffffffffffffffffffffffffffffffffffffff1673ffffffffffffffffffffffffffffffffffffffff16815260200160018201805461032890611868565b80601f016020809104026020016040519081016040528092919081815260200182805461035490611868565b80156103a15780601f10610376576101008083540402835291602001916103a1565b820191906000526020600020905b81548152906001019060200180831161038457829003601f168201915b505050505081526020016002820154815250508152602001906001019061029f565b50505050905090565b6103d46110b4565b600160008381526020019081526020016000206040518060a001604052908160008201548152602001600182015481526020016002820160009054906101000a900473ffffffffffffffffffffffffffffffffffffffff1673ffffffffffffffffffffffffffffffffffffffff1673ffffffffffffffffffffffffffffffffffffffff1681526020016002820160149054906101000a900460ff161515151581526020016002820160159054906101000a900460ff1615151515815250509050919050565b60006104dc6040518060400160405280601b81526020017f54686973206c696272617920686f6c647320256420626f6f6b73210000000000815250600054610c9a565b600054905090565b60036020528060005260406000206000915090505481565b60016020528060005260406000206000915090508060000154908060010154908060020160009054906101000a900473ffffffffffffffffffffffffffffffffffffffff16908060020160149054906101000a900460ff16908060020160159054906101000a900460ff16905085565b600042600360003373ffffffffffffffffffffffffffffffffffffffff1673ffffffffffffffffffffffffffffffffffffffff1681526020019081526020016000208190555060016000808282546105c491906118c8565b9250508190555061060b6040518060400160405280602081526020017f2573206a75737420616464656420257320746f20746865206c696272617279218152503384610d36565b600260405180606001604052803373ffffffffffffffffffffffffffffffffffffffff16815260200184815260200142815250908060018154018082558091505060019003906000526020600020906003020160009091909190915060008201518160000160006101000a81548173ffffffffffffffffffffffffffffffffffffffff021916908373ffffffffffffffffffffffffffffffffffffffff16021790555060208201518160010190816106c39190611aa8565b5060408201518160020155505060006106e2620f424060036001610dd5565b90506040518060a001604052807f000000000000000000000000000000000000000000000000000000000000000073ffffffffffffffffffffffffffffffffffffffff16634306d354620f42406040518263ffffffff1660e01b815260040161074b9190611b99565b602060405180830381865afa158015610768573d6000803e3d6000fd5b505050506040513d601f19601f8201168201806040525081019061078c9190611bc9565b8152602001600081526020013373ffffffffffffffffffffffffffffffffffffffff1681526020016000151581526020016000151581525060016000838152602001908152602001600020600082015181600001556020820151816001015560408201518160020160006101000a81548173ffffffffffffffffffffffffffffffffffffffff021916908373ffffffffffffffffffffffffffffffffffffffff16021790555060608201518160020160146101000a81548160ff02191690831515021790555060808201518160020160156101000a81548160ff0219169083151502179055509050503373ffffffffffffffffffffffffffffffffffffffff167f331808600a4d912b8e9bc588bac830c19f949adcf305313bb165c611a62dff0742856040516108bd929190611c2f565b60405180910390a27f3b5e49366080a8e62e328824cceda4fa695f04f8684e8fd04f9026da07d15d8f816040516108f491906115d9565b60405180910390a180915050919050565b61099b816040516024016109199190611c5f565b6040516020818303038152906040527f41304fac000000000000000000000000000000000000000000000000000000007bffffffffffffffffffffffffffffffffffffffffffffffffffffffff19166020820180517bffffffffffffffffffffffffffffffffffffffffffffffffffffffff8381831617835250505050610fec565b50565b60006001600084815260200190815260200160002060000154116109f7576040517f08c379a00000000000000000000000000000000000000000000000000000000081526004016109ee90611ccd565b60405180910390fd5b600180600084815260200190815260200160002060020160156101000a81548160ff02191690831515021790555080600081518110610a3957610a38611ced565b5b602002602001015160016000848152602001908152602001600020600101819055506032606482600081518110610a7357610a72611ced565b5b6020026020010151610a859190611d4b565b1015610c3a57610b076040518060400160405280600a81526020017f257320776f6e20257321000000000000000000000000000000000000000000008152506001600085815260200190815260200160002060020160009054906101000a900473ffffffffffffffffffffffffffffffffffffffff16655af3107a4000611015565b47655af3107a40001115610b50576040517f08c379a0000000000000000000000000000000000000000000000000000000008152600401610b4790611dee565b60405180910390fd5b60006001600084815260200190815260200160002060020160009054906101000a900473ffffffffffffffffffffffffffffffffffffffff1673ffffffffffffffffffffffffffffffffffffffff16655af3107a4000604051610bb290611e3f565b60006040518083038185875af1925050503d8060008114610bef576040519150601f19603f3d011682016040523d82523d6000602084013e610bf4565b606091505b5050905080610c38576040517f08c379a0000000000000000000000000000000000000000000000000000000008152600401610c2f90611ec6565b60405180910390fd5b505b7f7353285de459b2fd1a884ec25b7339f838c7a91beb60775b9257bccc1167796e826001600085815260200190815260200160002060020160149054906101000a900460ff16604051610c8e929190611ee6565b60405180910390a15050565b610d328282604051602401610cb0929190611f0f565b6040516020818303038152906040527fb60e72cc000000000000000000000000000000000000000000000000000000007bffffffffffffffffffffffffffffffffffffffffffffffffffffffff19166020820180517bffffffffffffffffffffffffffffffffffffffffffffffffffffffff8381831617835250505050610fec565b5050565b610dd0838383604051602401610d4e93929190611f3f565b6040516020818303038152906040527fe0e9ad4f000000000000000000000000000000000000000000000000000000007bffffffffffffffffffffffffffffffffffffffffffffffffffffffff19166020820180517bffffffffffffffffffffffffffffffffffffffffffffffffffffffff8381831617835250505050610fec565b505050565b60007f000000000000000000000000000000000000000000000000000000000000000073ffffffffffffffffffffffffffffffffffffffff16634000aea07f00000000000000000000000000000000000000000000000000000000000000007f000000000000000000000000000000000000000000000000000000000000000073ffffffffffffffffffffffffffffffffffffffff16634306d354886040518263ffffffff1660e01b8152600401610e8d9190611b99565b602060405180830381865afa158015610eaa573d6000803e3d6000fd5b505050506040513d601f19601f82011682018060405250810190610ece9190611bc9565b878787604051602001610ee393929190611fa1565b6040516020818303038152906040526040518463ffffffff1660e01b8152600401610f109392919061202d565b6020604051808303816000875af1158015610f2f573d6000803e3d6000fd5b505050506040513d601f19601f82011682018060405250810190610f539190612097565b507f000000000000000000000000000000000000000000000000000000000000000073ffffffffffffffffffffffffffffffffffffffff1663fc2a88c36040518163ffffffff1660e01b8152600401602060405180830381865afa158015610fbf573d6000803e3d6000fd5b505050506040513d601f19601f82011682018060405250810190610fe39190611bc9565b90509392505050565b60008151905060006a636f6e736f6c652e6c6f679050602083016000808483855afa5050505050565b6110af83838360405160240161102d939291906120c4565b6040516020818303038152906040527f0d26b925000000000000000000000000000000000000000000000000000000007bffffffffffffffffffffffffffffffffffffffffffffffffffffffff19166020820180517bffffffffffffffffffffffffffffffffffffffffffffffffffffffff8381831617835250505050610fec565b505050565b6040518060a001604052806000815260200160008152602001600073ffffffffffffffffffffffffffffffffffffffff1681526020016000151581526020016000151581525090565b6000604051905090565b600080fd5b600080fd5b6000819050919050565b61112481611111565b811461112f57600080fd5b50565b6000813590506111418161111b565b92915050565b600080fd5b6000601f19601f8301169050919050565b7f4e487b7100000000000000000000000000000000000000000000000000000000600052604160045260246000fd5b6111958261114c565b810181811067ffffffffffffffff821117156111b4576111b361115d565b5b80604052505050565b60006111c76110fd565b90506111d3828261118c565b919050565b600067ffffffffffffffff8211156111f3576111f261115d565b5b602082029050602081019050919050565b600080fd5b600061121c611217846111d8565b6111bd565b9050808382526020820190506020840283018581111561123f5761123e611204565b5b835b8181101561126857806112548882611132565b845260208401935050602081019050611241565b5050509392505050565b600082601f83011261128757611286611147565b5b8135611297848260208601611209565b91505092915050565b600080604083850312156112b7576112b6611107565b5b60006112c585828601611132565b925050602083013567ffffffffffffffff8111156112e6576112e561110c565b5b6112f285828601611272565b9150509250929050565b600081519050919050565b600082825260208201905092915050565b6000819050602082019050919050565b600073ffffffffffffffffffffffffffffffffffffffff82169050919050565b600061135382611328565b9050919050565b61136381611348565b82525050565b600081519050919050565b600082825260208201905092915050565b60005b838110156113a3578082015181840152602081019050611388565b60008484015250505050565b60006113ba82611369565b6113c48185611374565b93506113d4818560208601611385565b6113dd8161114c565b840191505092915050565b6113f181611111565b82525050565b600060608301600083015161140f600086018261135a565b506020830151848203602086015261142782826113af565b915050604083015161143c60408601826113e8565b508091505092915050565b600061145383836113f7565b905092915050565b6000602082019050919050565b6000611473826112fc565b61147d8185611307565b93508360208202850161148f85611318565b8060005b858110156114cb57848403895281516114ac8582611447565b94506114b78361145b565b925060208a01995050600181019050611493565b50829750879550505050505092915050565b600060208201905081810360008301526114f78184611468565b905092915050565b60006020828403121561151557611514611107565b5b600061152384828501611132565b91505092915050565b60008115159050919050565b6115418161152c565b82525050565b60a08201600082015161155d60008501826113e8565b50602082015161157060208501826113e8565b506040820151611583604085018261135a565b5060608201516115966060850182611538565b5060808201516115a96080850182611538565b50505050565b600060a0820190506115c46000830184611547565b92915050565b6115d381611111565b82525050565b60006020820190506115ee60008301846115ca565b92915050565b6115fd81611348565b811461160857600080fd5b50565b60008135905061161a816115f4565b92915050565b60006020828403121561163657611635611107565b5b60006116448482850161160b565b91505092915050565b61165681611348565b82525050565b6116658161152c565b82525050565b600060a08201905061168060008301886115ca565b61168d60208301876115ca565b61169a604083018661164d565b6116a7606083018561165c565b6116b4608083018461165c565b9695505050505050565b600080fd5b600067ffffffffffffffff8211156116de576116dd61115d565b5b6116e78261114c565b9050602081019050919050565b82818337600083830152505050565b6000611716611711846116c3565b6111bd565b905082815260208101848484011115611732576117316116be565b5b61173d8482856116f4565b509392505050565b600082601f83011261175a57611759611147565b5b813561176a848260208601611703565b91505092915050565b60006020828403121561178957611788611107565b5b600082013567ffffffffffffffff8111156117a7576117a661110c565b5b6117b384828501611745565b91505092915050565b600082825260208201905092915050565b7f6f6e6c792056524620563220777261707065722063616e2066756c66696c6c00600082015250565b6000611803601f836117bc565b915061180e826117cd565b602082019050919050565b60006020820190508181036000830152611832816117f6565b9050919050565b7f4e487b7100000000000000000000000000000000000000000000000000000000600052602260045260246000fd5b6000600282049050600182168061188057607f821691505b60208210810361189357611892611839565b5b50919050565b7f4e487b7100000000000000000000000000000000000000000000000000000000600052601160045260246000fd5b60006118d382611111565b91506118de83611111565b92508282019050808211156118f6576118f5611899565b5b92915050565b60008190508160005260206000209050919050565b60006020601f8301049050919050565b600082821b905092915050565b60006008830261195e7fffffffffffffffffffffffffffffffffffffffffffffffffffffffffffffffff82611921565b6119688683611921565b95508019841693508086168417925050509392505050565b6000819050919050565b60006119a56119a061199b84611111565b611980565b611111565b9050919050565b6000819050919050565b6119bf8361198a565b6119d36119cb826119ac565b84845461192e565b825550505050565b600090565b6119e86119db565b6119f38184846119b6565b505050565b5b81811015611a1757611a0c6000826119e0565b6001810190506119f9565b5050565b601f821115611a5c57611a2d816118fc565b611a3684611911565b81016020851015611a45578190505b611a59611a5185611911565b8301826119f8565b50505b505050565b600082821c905092915050565b6000611a7f60001984600802611a61565b1980831691505092915050565b6000611a988383611a6e565b9150826002028217905092915050565b611ab182611369565b67ffffffffffffffff811115611aca57611ac961115d565b5b611ad48254611868565b611adf828285611a1b565b600060209050601f831160018114611b125760008415611b00578287015190505b611b0a8582611a8c565b865550611b72565b601f198416611b20866118fc565b60005b82811015611b4857848901518255600182019150602085019450602081019050611b23565b86831015611b655784890151611b61601f891682611a6e565b8355505b6001600288020188555050505b505050505050565b600063ffffffff82169050919050565b611b9381611b7a565b82525050565b6000602082019050611bae6000830184611b8a565b92915050565b600081519050611bc38161111b565b92915050565b600060208284031215611bdf57611bde611107565b5b6000611bed84828501611bb4565b91505092915050565b6000611c0182611369565b611c0b81856117bc565b9350611c1b818560208601611385565b611c248161114c565b840191505092915050565b6000604082019050611c4460008301856115ca565b8181036020830152611c568184611bf6565b90509392505050565b60006020820190508181036000830152611c798184611bf6565b905092915050565b7f52657175657374206e6f7420666f756e64000000000000000000000000000000600082015250565b6000611cb76011836117bc565b9150611cc282611c81565b602082019050919050565b60006020820190508181036000830152611ce681611caa565b9050919050565b7f4e487b7100000000000000000000000000000000000000000000000000000000600052603260045260246000fd5b7f4e487b7100000000000000000000000000000000000000000000000000000000600052601260045260246000fd5b6000611d5682611111565b9150611d6183611111565b925082611d7157611d70611d1c565b5b828206905092915050565b7f496e73756666696369656e742066756e647320696e2074686520636f6e74726160008201527f63742e0000000000000000000000000000000000000000000000000000000000602082015250565b6000611dd86023836117bc565b9150611de382611d7c565b604082019050919050565b60006020820190508181036000830152611e0781611dcb565b9050919050565b600081905092915050565b50565b6000611e29600083611e0e565b9150611e3482611e19565b600082019050919050565b6000611e4a82611e1c565b9150819050919050565b7f4661696c656420746f207769746864726177206d6f6e65792066726f6d20636f60008201527f6e74726163740000000000000000000000000000000000000000000000000000602082015250565b6000611eb06026836117bc565b9150611ebb82611e54565b604082019050919050565b60006020820190508181036000830152611edf81611ea3565b9050919050565b6000604082019050611efb60008301856115ca565b611f08602083018461165c565b9392505050565b60006040820190508181036000830152611f298185611bf6565b9050611f3860208301846115ca565b9392505050565b60006060820190508181036000830152611f598186611bf6565b9050611f68602083018561164d565b8181036040830152611f7a8184611bf6565b9050949350505050565b600061ffff82169050919050565b611f9b81611f84565b82525050565b6000606082019050611fb66000830186611b8a565b611fc36020830185611f92565b611fd06040830184611b8a565b949350505050565b600081519050919050565b600082825260208201905092915050565b6000611fff82611fd8565b6120098185611fe3565b9350612019818560208601611385565b6120228161114c565b840191505092915050565b6000606082019050612042600083018661164d565b61204f60208301856115ca565b81810360408301526120618184611ff4565b9050949350505050565b6120748161152c565b811461207f57600080fd5b50565b6000815190506120918161206b565b92915050565b6000602082840312156120ad576120ac611107565b5b60006120bb84828501612082565b91505092915050565b600060608201905081810360008301526120de8186611bf6565b90506120ed602083018561164d565b6120fa60408301846115ca565b94935050505056fea26469706673582212200af26bb10e83f29dadc3834c69061b9da9ca87830c26c1f21c24ec78d8f55ae064736f6c634300081100334920616d206e6f74206120726561736f6e696e67206d616368696e65206c696b6520796f752c206275742049276c6c20676c61646c792073746f726520796f757220626f6f6b7321",
  "linkReferences": {},
  "deployedLinkReferences": {}
}